:020000040800F2
:10000000D817002065030008C74E0008BD4500084A
:10001000C54E0008BD2000089559000800000000EA
:100020000000000000000000000000000354000871
:100030008721000800000000D94F0008055400087F
:100040007F0300087F0300087F0300087F03000888
:100050007F0300087F0300087F0300087F03000878
:100060007F0300087F0300087F030008C120000809
:10007000CD200008D92000087F0300087F03000876
:100080007F030008000000007F0300087F030008D2
:100090007F0300087F0300087F0300087F03000838
:1000A0007F0300087F0300087F0300087F03000828
:1000B0007F0300087F0300087F0300087F03000818
:1000C0007F0300087F0300087F0300087F03000808
:1000D0007F0300087F0300087F0300087F030008F8
:1000E0007F0300087F0300087F0300087F030008E8
:1000F0007F0300087F0300087F0300080000000062
:10010000000000007F030008000000007F030008DB
:100110007F030008000000007F0300087F03000841
:100120007F0300087F0300087F0300087F030008A7
:100130007F03000800000000000000007F030008AB
:100140007F0300087F03000800000000000000009B
:10015000000000000000000000000000000000009F
:100160000000000000000000000000007F03000805
:100170007F030008000000000000000000000000F5
:10018000000000007F0300080000000000000000E5
:10019000000000000000000000000000000000005F
:1001A00000000000000000007F0300087F0300083B
:1001B0007F0300087F0300087F03000800000000A1
:1001C000000000007F0300080000000000000000A5
:1001D0007F0300087F03000800F002F800F0B2F887
:1001E0000AA090E8000C82448344AAF10107DA4592
:1001F00001D100F0A7F8AFF2090EBAE80F0013F032
:10020000010F18BFFB1A43F00103184744770000A1
:10021000647700000A444FF0000C10F8013B13F023
:10022000070408BF10F8014B1D1108BF10F8015B4F
:10023000641E05D010F8016B641E01F8016BF9D142
:1002400013F0080F1EBF10F8014BAD1C0C1B09D199
:100250006D1E58BF01F801CBFAD505E014F8016B0B
:1002600001F8016B6D1EF9D59142D6D3704700009D
:100270000023002400250026103A28BF78C1FBD8AF
:10028000520728BF30C148BF0B6070476E2900F08D
:100290009581702900F0D782662906F0E6816529EC
:1002A00006F0E381672906F0E081612906F0DF812D
:1002B00003681B0A28BF41F08001692900F04281D0
:1002C000642900F03F81752900F03C816F2900F01E
:1002D0006582782900F0A382E92900F0FF81E429F2
:1002E00000F0FC81F52900F0F981EF2900F062822D
:1002F000F82900F0A2820368DB0928BF41F08001E1
:10030000632900F0A387732900F0A887E32900F090
:10031000B387F32900F0B887002070471FB506F0B7
:100320009FF901F003F804000020002106F082F993
:10033000401C60600020002106F066F9E0601FBDEF
:1003400010B510BD00F0C4FF1146FFF7E7FF05F040
:10035000D0FE01F09DF803B4FFF7F2FF03BC01F0FB
:10036000E1F800000948804709480047FEE7FEE73A
:10037000FEE7FEE7FEE7FEE7FEE7FEE7FEE7FEE755
:1003800004480549054A064B70470000955400088B
:10039000D9010008D8070020D8170020D80F002066
:1003A000D80F00201CB50C46064B7B4469460090D4
:1003B000204600F01CF904460020694600F02AF9A6
:1003C00020461CBD6702000010B5203AC0F00B802B
:1003D000B1E81850203AA0E81850B1E81850A0E849
:1003E0001850BFF4F5AF5FEA027C24BFB1E81850A3
:1003F000A0E8185044BF18C918C0BDE810405FEA13
:10040000827C24BF51F8043B40F8043B08BF70478E
:10041000D20728BF31F8023B48BF11F8012B28BF93
:1004200020F8023B48BF00F8012B70474FF0000254
:1004300000B5134694469646203922BFA0E80C50DA
:10044000A0E80C50B1F12001BFF4F7AF090728BFB5
:10045000A0E80C5048BF0CC05DF804EB890028BF31
:1004600040F8042B08BF704748BF20F8022B11F05A
:10047000804F18BF00F8012B7047704770477047D6
:1004800070B5044685690068C10601D5302600E0D4
:100490002026C00707D070BDD4E90121304690471F
:1004A000206A401C20626D1EF6D570BD70B50446F2
:1004B00085690078C00707D170BDD4E901212020EB
:1004C0009047206A401C20626D1EF6D570BD0968F9
:1004D0004A0501D540B27047C905FCD500B2704746
:1004E00009684A0501D5C0B27047C905FCD580B27C
:1004F000704770B50C460546012A05D0287880065D
:1005000000D5EA69002302E0012305E05B1C934269
:1005100002D2E05C0028F9D1A869E618C01AA861E7
:10052000286A184428622846FFF7AAFF04E0D5E9A4
:10053000012114F8010B9047B442F8D32846FFF785
:10054000B5FF70BD2DE9F0410646002410687529FD
:10055000314616A510D0FFF7BAFF002802DA404254
:1005600013A507E031688A0701D512A502E0490703
:1005700004D511A5012401E0FFF7B2FF00210A22F2
:1005800006F1240709E0B0FBF2FCB0FBF2F302FB3A
:100590001C00303078541846491C0028F3D12346FB
:1005A0002A463046BDE8F04100F061BA0000000084
:1005B0002D0000002B0000002000000011680268E0
:1005C000006A530501D508700AE0D30501D50880FB
:1005D00006E0130603D5C217C1E9000200E0086077
:1005E0000120704701694A1C02610878704700B514
:1005F0008FB0CDE901310021059105497944CDE95C
:1006000003101146684600F029F90FB000BD000044
:10061000E5FFFFFF0A6802F8010B0A60704700005F
:100620002DE9FF5F15468A460446DFF8AC80F844A2
:100630000027D8E900103E46CDE9001010E03AF856
:1006400016106A4602A800F023FE411C07D021784C
:10065000890603D5E269391891420DD80744761C02
:100660002078800602D5E069B84205DDAE42E6DBBF
:100670003AF816000028E2D1A069C01BA06120460C
:10068000FFF7FEFED8E90010CDE90010002017E0CA
:100690003AF818106A4602A800F0FAFDB0F1FF3FE0
:1006A00081460BD000250DF1080B05E0D4E90121AE
:1006B0001BF8050090476D1C4D45F7D308F101006C
:1006C000B0428046E4DB206A384420622046FFF7CF
:1006D000EDFEBDE8FF9F0000227200002DE9F04111
:1006E0008046D21D22F007020025D2E90002F5293A
:1006F00015A614D0011E72F1000106DA0023D0EB1A
:10070000030063EB020211A608E0D8F800108B0783
:1007100001D50FA602E0490701D50EA60125114615
:10072000002408F1240704E000F05CF930323A5567
:10073000641C50EA0102F7D12B463246214640465E
:10074000BDE8F04100F093B9000000002D0000006A
:100750002B0000002000000030B4002100F1240430
:1007600008E002F00705D208303542EA4372DB08A0
:100770006554491C52EA0305F3D10468002310A212
:10078000250708D504F020040C4304D0C4690123D4
:100790000CA2641EC46130BC00F069B910B50446F7
:1007A00021461068FFF79CFE02462046BDE8104037
:1007B0000023D1E7D21D22F00701D1E90023CBE7C6
:1007C0000000000030000000F0B40D46018809056B
:1007D00002D5214C7C4402E01F4C7C440E340021A5
:1007E00000F1240608E002F00F071209E75D42EA73
:1007F00003721B097754491C52EA0307F3D10278AC
:100800000023120704D5702D06D009B1022311343C
:100810002246F0BC00F02BB901231034F8E770B584
:1008200004460D4621461068FFF75AFE0246294647
:100830002046BDE870400023C6E7D21D22F0070322
:10084000D3E90023C0E70368126843F02003036084
:100850000823C3610023B7E7847000002DE9F05F2F
:10086000894604464FF0000ADFF874B1FB44C0F833
:1008700020A02046E1688847002874D0252806D0AB
:10088000D4E901219047206A401C2062F1E700264C
:100890005F462046E16888472028054607DB312D62
:1008A00005D2781910F8200C08B10643F1E7B0071B
:1008B00001D526F00406C4F81CA00027C4F818A02F
:1008C0002A2D09D0284605F04DF938B304EB8708E6
:1008D000303DC8F8185019E059F8041B204604EBC5
:1008E00087029161E1688847012F054618D1E069C8
:1008F000002820DA26F020061DE0D8F8180000EBCA
:10090000800005EB40003038C8F818002046E16848
:100910008847054605F026F90028EED1012F0AD0B8
:100920002E2D08D12046E16888477F1C0546022FFE
:1009300046F02006C4DBA069002803DA404246F0F6
:100940000106A061F00701D026F010066C2D0BD037
:10095000682D09D04C2D39D06A2D35D0742D35D065
:100960007A2D33D016E038E0E1682F4620468847DC
:10097000B842054609D16C2F26D04FF48060E1685B
:10098000064320468847054604E06C2F1AD04FF4F2
:10099000807006430DB3A5F14100192802D8203517
:1009A00046F400664A462946204626604E46FFF732
:1009B0006DFC80B101280BD0F61D26F0070000F178
:1009C000080956E74020E4E78020D8E70020D6E772
:1009D00006F104094DE7284652E7206ABDE8F09F7A
:1009E0001470000030B5B0F10A024FEA900E71F1B8
:1009F00000034EEA817EB0EB0E0061EB91014FEAFD
:100A0000101E4EEA017E10EB0E0041EB11114FEA71
:100A1000102E4EEA016E10EB0E0041EB11214FEA51
:100A2000104E4EEA014E10EB0E0041EB1141401802
:100A300041F100014FEAD00040EA41704FEAD10194
:100A400010EB80054FEA810444EA907444EB010402
:100A50006D1944EB0404521BA3414FF0000348BF3F
:100A60000A3200D530BD401C41F1000130BD2DE9F6
:100A7000F0470D4699469246044600F12408016865
:100A8000880604D5E06921F01001216000E0012012
:100A9000A84201DD471B00E00027A1697A1902EB9B
:100AA0000900081AA0612078C00602D42046FFF78A
:100AB000E7FC002608E0D4E901211AF80600904777
:100AC000206A401C761C20624E45F4DB2078C0066C
:100AD0000AD52046FFF7D4FC06E0D4E901213020F6
:100AE0009047206A401C2062381EA7F10107F4DC01
:100AF00007E0D4E9012118F805009047206A401C5E
:100B00002062281EA5F10105F3DC2046FFF7CEFC8C
:100B10002078000602D50220BDE8F0870120FBE71F
:100B200070472DE9FF4F0C461E464FF0FF378BB044
:100B3000D2E90001DDF860800A908A46C1F30A55C7
:100B400005B93D46002108464FF00000BAF1000FFC
:100B500000F4400005DA00EB80004FF4400101EAA8
:100B600050004FEA9059B9F1010F00DDB9460A98DB
:100B700050EA4A000ED044F61050A5F2FF35454326
:100B80002F14B8F1000F1ED07542291E1EDDC9F1C9
:100B900000021CE0B8F1010F4FF0000001D030213D
:100BA00003E0F24305E02154401CB042FBDB304639
:100BB0000022002121540B99C1F80880C1E90020CE
:100BC0000FB0BDE8F08FBD1B6D1CDEE74A4600DAB2
:100BD000694206A800F0EEFB06AB93E8070003AB02
:100BE00083E8070050460A9900F0A3FC8DE807004F
:100BF000A0F500501F3800900398002D09DD42F247
:100C00001F014A46084403A90390684600F002FF0A
:100C100008E0A0F500504A461F3803A90390684633
:100C200000F00CFF8DE807000004000C03D04FF02B
:100C3000FF30410800E01046B8F1000F03D0002259
:100C4000009215461EE0751E05D4FFF7CBFE30322C
:100C500062556D1EF9D5B3460122084302D0002229
:100C60007F1C04E02078302801D100227F1E002A5A
:100C7000099786D01DE0112D07DAFFF7B3FE303259
:100C800062556D1C50EA0102F5D1084302D000986C
:100C9000C8B10EE00021681E05E0235C625C63546D
:100CA0002254401E491C8142F7DBAB46A81B401E64
:100CB0000990002004F80B000B98099AC0F80880EE
:100CC000C0E9002B7CE711264FF0000859E72DE919
:100CD000F04F88460446D21D22F0070191B0D1E9B9
:100CE0000001CDE90A0104F015FF02460B98C00F80
:100CF00001D02D2007E02068810701D52B2002E0DC
:100D0000202101EAC000032A099001D0072A05DB4F
:100D100003464146204600F00DFB0BE1207880069B
:100D200001D5E06900E00620B8F1650F814606D0E4
:100D3000B8F1660F18D0B8F1670F70D131E000201C
:100D4000B9F1110F009001DB112301E009F101035A
:100D50000AAA01A90CA8FFF7E4FEDDE90C70002641
:100D600009F10105834647E001204B4600904FF012
:100D700000470AAA01A90CA8FFF7D3FEDDE90DB0D0
:100D80000C995D46002610B909F101000D18B9EB68
:100D9000050003D4C0F1FF3609F10105A5EB0900F8
:100DA0002BE0B9F1010F01DA4FF001090020B9F190
:100DB000110F0090484601DD112300E003460AAA06
:100DC00001A90CA8FFF7ADFEDDE90C704D46002629
:100DD0008346207800070AD4AB4500DA5D4601A8B7
:100DE000012D04DD411911F8011C302907D04F45B0
:100DF00002DA17F1040F04DA012082460FE06D1EBB
:100E0000EEE7002F02DCED1B3E4403E0781CA84215
:100E100000DD7D1CB81B00F1010A4FF0004720786F
:100E2000000703D4AA4501DB4FF0FF3A0021B7F1D8
:100E3000004F0DF143088DF8431024D002202B23DE
:100E4000002F01DA7F422D230A21021EA0F10100AA
:100E500000DC5FB197FBF1FC97FBF1F201FB1C7C1E
:100E600017460CF1300C08F801CDEEE7A8F10100AF
:100E700003702188090501D5452100E06521A0F115
:100E8000010800F8011C09980FA9A1EB0807FF1D34
:100E900000B10120411901EBEA70A1693844081A38
:100EA000401EA0612078C00602D42046FFF7E8FA71
:100EB000099828B1D4E901219047206A401C20629A
:100EC0002078C00622D52046FFF7DAFA1EE0002E71
:100ED00004DBB34502DD01A8805D00E03020D4E9E9
:100EE00001219047206A401C2062761CAAF1010073
:100EF0005FEA000A0AD100F019FAC0680168405C94
:100F0000D4E901219047206A401C2062281EA5F1E7
:100F10000105DCDC07E0D4E9012118F8010B90475A
:100F2000206A401C2062381EA7F10107F3DC20462E
:100F3000FFF7BCFA032011B043E600002DE9F04FA3
:100F400004460D46D21D22F0070089B0D0E9009278
:100F500048461746394604F0DDFD0246F80F01D039
:100F60002D2307E02068810701D52B2302E02021F3
:100F700001EAC0038DF820300BB1012000E0002011
:100F8000032A824601D0072A04DB2946204600F0C6
:100F9000D1F93DE12078800601D40D2500E0E56916
:100FA000C7F30A560D2D49DA00214FEA175B0846B0
:100FB0004FF00000002F00F4400007DA00EB800043
:100FC0004FF4400100EBD07001EA60008115012967
:100FD00001DD4FF0FF3100224FEA850CBCF1180F04
:100FE00006D31346ACF118004FF08052C24003E024
:100FF0004FF4801323FA0CF30CF10C0CBCF1200F0E
:1010000004D3ACF1200C09FA0CF001E007FA0CF063
:1010100000294FF0004801DD18B90FE00ED140451E
:101020000CD319EB02095F4121B9404502D19F431E
:1010300029EA0209BBEB175F00D0761C2088000567
:1010400002D57B48784402E079487844193808AAE8
:10105000302302F80A30037C0AF10101002E0AF164
:10106000020A53546A4602DC4FF0300101E04FF0AF
:1010700031014FF001088DF8001002D0A6F2FF36C2
:1010800003E059EA470100D06A4E002D02DC2178C6
:10109000090704D54FF002082E218DF80110C4462F
:1010A00000210BE0C7F303433F01C35C491C6D1EE5
:1010B00002F80830052908F1010801DA002DF1DCF9
:1010C00000210CE000EB1973491C1B786D1E0829E8
:1010D00002F808304FEA091908F1010801DA002D79
:1010E000F0DC2178890602D514E0A8F10108E0457A
:1010F00005DD02EB080111F8011C3029F5D0B8F12B
:10110000000F07DD02EB080111F8011C2E2901D1A7
:10111000A8F10108002D05DD3E2102F808106D1E22
:1011200008F10108407C002E02F8080008F10108CF
:1011300004DA2D20764202F8080002E02B2002F8A3
:1011400008000A214FF47A70864208F101080BDB8F
:1011500096FBF0F3303302F8083096FBF0F308F119
:10116000010800FB136601E0642E0CDB642096FB93
:10117000F0F3303302F8083096FBF0F308F1010881
:1011800000FB136601E00A2E06DB96FBF1F030301F
:1011900002F8080008F1010896FBF1F001FB10606D
:1011A000303002F80800A16908F1010808EB0502D7
:1011B00002EB0A00081AA0612078C00602D420467B
:1011C000FFF75EF9216A08AE01EB0A00206204E035
:1011D000D4E9012116F8010B9047BAF1010AF7D2C0
:1011E0002078C00602D52046FFF74AF96E4609E08E
:1011F00016F8010B3E280FD0D4E901219047206A50
:10120000401C2062B8F10108F2D22046FFF74EF9E7
:1012100009B00320BDE8F08F206A2844206203E073
:10122000D4E90121302090476D1EEBD3F8E7000090
:101230006068000002FCFFFF10B5436913B1AFF313
:10124000008001E0FFF755F9012010BD127800F190
:1012500024010A7000224A700122EDE711684FF064
:10126000FF32E9E710B5436913B1AFF3008001E045
:10127000FFF7D6F9012010BD128800F12401828405
:101280000022C2840122EDE711684FF0FF32E9E746
:1012900070B516460C46054600F040F8036893F812
:1012A0000101012806D0FF2C0FD8185D68B101207C
:1012B0002C7070BDD3F807013246214603F20713A4
:1012C00003442846BDE8704018474FF0FF3070BD1A
:1012D000754600F0E3F8AE4605006946534620F037
:1012E0000700854618B020B5FFF74AF8BDE8204052
:1012F0004FF000064FF000074FF000084FF0000BD2
:1013000021F00701AC46ACE8C009ACE8C009ACE884
:10131000C009ACE8C0098D467047000010B500F068
:1013200005F8001D10BD00BF0D53000000487047B8
:10133000980700202DE9F0411F4604460326016866
:10134000072A01F4006004DB08B116A505E016A524
:1013500003E008B115A500E015A521F010002060FC
:10136000A069C01EA0610FB1401EA0612046FFF71A
:1013700087F84FB1D4E9012138469047206A401CD4
:101380002062C01C206206E0206AFAE7D4E901214D
:1013900015F8010B9047761EF8D22046FFF786F825
:1013A000BDE8F0814E414E006E616E00494E460030
:1013B000696E66002DE9F047814616468AB03348CB
:1013C00078440DC88DE80D0030487844801C03AC8B
:1013D0000DC884E80D0041F69B300844372190FB8E
:1013E000F1F290FBF1F5A5F1800501FB12041B3C25
:1013F00002D56442012000E00020DFF890A0804682
:101400000027FA44AAF1BE0A0DE0E00709D03246EF
:10141000684607EB47010AEB810100F00FFB8DE8FE
:10142000070064107F1C002CEFD1184F7F44AC3FA5
:1014300018E0E80714D007EB04100DF1180A90E843
:101440000E008AE80E00C068F04201D19819089099
:10145000324606A903A800F0F1FA03AB83E80700BF
:101460006D10641C002DE4D132466946B8F1000FBE
:1014700003A802D000F0CEFA01E000F0DFFAC9E9DB
:101480000001C9F808200AB0BDE8F08774650000C3
:101490000446AFF300802046FEF75DFF004870472A
:1014A000780700204FF0013C50F8042B51F8043B22
:1014B0009A4221D1A2EB0C03934313EACC1317D128
:1014C00050F8042B51F8043B9A4215D1A2EB0C03BF
:1014D000934313EACC130BD150F8042B51F8043B7F
:1014E0009A4209D1A2EB0C03934313EACC13DBD04D
:1014F0004FF00000704700BFD01A01BAB1FA81F175
:1015000001F0180122FA01F0CB40C1F12001DBB259
:10151000C0B2C01A2CFA01F3D11A914311EAC311D7
:10152000E6D1704701491820ABBEFEE72600020055
:1015300070475FEA400C08BF91F0000F4FEA8C2320
:101540004FEAC12243EA51514FEA1C5018BF00F53F
:10155000F0404FEA300018BF41F000415FEA6C5C98
:1015600000F02980BCF1FF3F08BF40F08040704789
:10157000130C06BF12044FF0100C4FF0000C130EAA
:1015800004BF12020CF1080C130F04BF12010CF17E
:10159000040C930F04BF92000CF1020CD30F04BF94
:1015A00052000CF1010C11464FF00002A0F11F0097
:1015B000A0EB0C00704711F0004F08BF704731F0EE
:1015C00000413FF4D5AF0B0C06BF09044FF0100CDF
:1015D0004FF0000C0B0E04BF09020CF1080C0B0FAE
:1015E00004BF09010CF1040C8B0F04BF89000CF13E
:1015F000020CCB0F04BF49000CF1010CCCF120030D
:10160000A0EB0C0022FA03F302FA0CF241EA030108
:1016100000F10100704720F07F4C80EA030023F0C6
:101620007F47ACEB070303F57C5300F0004003F168
:10163000FF032DE980494FEA154B09B44FEA1443E3
:1016400025EA0B4E24EA03480FF2042606EB132783
:1016500049083E785FEA320203FB0667C7F50007D8
:1016600007FB06F64FEA54374FEAD64606F1020664
:1016700007FB066CCCF1005C4FEA1C472CEA074CD8
:1016800007FB06F40CFB06F504EB15464FEA96162D
:1016900034BF00204FF000404FEAD13706FB07FC73
:1016A0004FEA1C4C0CFB0BF7D21B03FB0CF761EB56
:1016B00007010CFB0EF7B0EB074072EB17420CFB77
:1016C00008F734BFA2EB0742B2EB074261EB1741C8
:1016D0004FEA0C444FEA910706FB07FC4FEA1C4C0B
:1016E0000CFB0BF7B0EBC74072EB573203FB0CF768
:1016F00034BFA2EBC742B2EBC74261EB57310CFBE0
:101700000EF7B0EBC70072EB57720CFB08F734BF53
:10171000A2EBC702B2EBC70261EB5771039F4FEA1E
:10172000816141EA921104EBCC044FEAD1374FEAD0
:10173000826206FB07FC42EA90124FEA80604FEAA1
:101740001C4C0CFB0BF7D21B03FB0CF761EB0701E6
:101750000CFB0EF7B0EB074072EB17420CFB08F7DF
:1017600034BFA2EB0742B2EB074261EB17414FEAED
:101770008C554FEA910704EB9C2406FB07FC4FEACB
:101780001C4C0CFB0BF7B0EBC74072EB573203FB62
:101790000CF734BFA2EBC742B2EBC74261EB573143
:1017A0000CFB0EF7B0EBC70072EB57720CFB08F79F
:1017B00034BFA2EBC702B2EBC70261EB577115EB66
:1017C0004C254FEA816141EA92114FEA82624FEA69
:1017D000D13742EA901206FB07FC44F100044FEABD
:1017E00080604FEA1C4C0CFB0BF7D21B03FB0CF781
:1017F00061EB07010CFB0EF7B0EB074072EB1742F1
:101800000CFB08F734BFA2EB0742B2EB074261EBD7
:10181000174115EB1C154FEA813141EA92414FEA1D
:10182000823242EA90424FEA80304FEA0C7644F12D
:10183000000448EA03434EEA0B484FF0000EB2EBB7
:10184000080C71EB030724BF624639464EEB0E0EBF
:101850004FF0000B0018524149414BEB0B0BB2EB20
:10186000080C71EB03077BF1000B24BF624639467D
:101870004EEB0E0E4FF0000B0018524149414BEB5E
:101880000B0BB2EB080C71EB03077BF1000B24BFD1
:10189000624639464EEB0E0E51EA020718BF46F07B
:1018A000010616EB0E7655F1000254F1000103D546
:1018B000BDE88901BDE80088BDE88901BDE80048B0
:1018C000B619524141EB0101A3F101037047808039
:1018D0007F7E7D7C7B7A797877767675747372718A
:1018E00071706F6E6E6D6C6C6B6A6A696868676642
:1018F00066656464636362616160605F5F5E5E5DD4
:101900005D5C5C5B5B5A5A59595858575756565547
:1019100055555454535352525251515050504F4FA9
:101920004F4E4E4D4D4D4C4C4C4B4B4B4A4A4A49F9
:10193000494948484847474747464646454545443C
:101940004444444343434342424242414141002BC9
:1019500026D4770021D01CB54FEA370703B44FF0E7
:1019600010004FF010014FF000000FBCBDE8104018
:101970000BF1010BBBF1010F08BF5FEA170722BF94
:1019800012F1010211F101014FF0004143F1000396
:1019900000F0004043EA00007047F9D35708DAE747
:1019A00046EA064613F1400F4FEA16461FDD13F1D3
:1019B000200FDFBF16430A46002120335B42C8D008
:1019C000C3F1200746EA064602FA07F74FEA164631
:1019D00046EA0706C3F1200722FA03F201FA07F7E5
:1019E00021FA03F14FF0000342EA0702B1E746EAA9
:1019F000020646EA06464FEA164646EA0106BCBF1C
:101A000046EA0646360C4FF000034FF000024FF056
:101A100000019EE72DE9C048934630B491E83800B4
:101A200007C831EA400C48BF34EA430C03D5FFF73E
:101A3000F2FDFFF78CFFF0BCBDE800882DE9C0483F
:101A4000934630B491E8380007C810F0804F08BFC3
:101A500013F0804F03D100F005F8FFF778FFF0BCDA
:101A6000BDE8008820F07F4780EA030023F07F4C28
:101A700007EB0C03A3F57C5300F00040A3F1FE0339
:101A800092F0000F00F0B38095F0000F00F0778027
:101A90002DE901494FEA11404FEA144621EA004876
:101AA00000FB06FC24EA064708FB06F607FB08F8DD
:101AB00000FB07F718EB06484CEB164C4FEA124BAD
:101AC00018EB07484FEA15464CEB174022EA0B4E3D
:101AD0000BFB06FC25EA06470EFB06F607FB0EFE8F
:101AE0000BFB07F71EEB064E4CEB164C4FF00006B7
:101AF0001EEB074E4CEB174B18EB0B0840F10000A8
:101B000018EB0E0B58EB000840F100008F1A4FF055
:101B100000013CBFC943661B14BFB5EB040C002198
:101B20003CBFC943F61B4FEA17444EEA8E0E27EA24
:101B300004454FEA1C4704FB07622CEA074C05FBEF
:101B400007F70CFB05F604FB0CFC16EB074642EB13
:101B5000174216EB0C4642EB1C421BEB060658EBF9
:101B60000202414146EA9E0601D5BDE80189B61947
:101B7000524141EB0101A3F10103BDE801894FEAA4
:101B800014454FEA114724EA054621EA074C05FBB4
:101B900007F406FB07F70CFB06F105FB0CFC11EB49
:101BA000074144EB17444FEA124711EB0C4144EB59
:101BB0001C4422EA074C05FB07F206FB07F70CFB67
:101BC00006F605FB0CFC16EB074642EB174216EB3C
:101BD0000C4642EB1C456A1854F1000148BF70479F
:101BE000B619524141EB0101A3F10103704795F091
:101BF000000F37D04FEA11424FEA144721EA02465C
:101C000024EA074C02FB07F106FB07F70CFB06F47E
:101C100002FB0CFC14EB074441EB17414FEA15475C
:101C200014EB0C4441EB1C4125EA074C02FB07F581
:101C300006FB07F70CFB06F602FB0CFC16EB07464F
:101C400045EB174516EB0C4645EB1C42121951F1BA
:101C5000000148BF7047B619524141EB0101A3F1A1
:101C6000010370474FEA14454FEA114724EA05463D
:101C700021EA074C05FB07F106FB07F70CFB06F210
:101C80004FF0000605FB0CFC12EB074241EB17413D
:101C900012EB0C4251EB1C4148BF7047921841EBCC
:101CA0000101A3F10103704710B5846AE16D11F0E1
:101CB000500F06D0E16DC90625D5204600F0F0FC96
:101CC00010BDE06D40F40070E06520680168090710
:101CD00016D502F059FE78B12068C068800400284B
:101CE0000ADBE06D20F48070E065E06DC00403D491
:101CF000E06D40F00100E065204600F0CFFC10BD33
:101D0000C0688007EBE7616D496BBDE8104008478C
:101D100010B5806AC16D41F04001C165016E41F0AE
:101D20000401016600F0BCFC10BD10B5806A00F033
:101D3000B6FC10BDF8B5044600200090206881680C
:101D400011F0010F41D18168214A11422ED18168E1
:101D5000D5432940491C81601E48806800F0E0702E
:101D600000020DD51C481D490068B0FBF1F0401C75
:101D700000EB4000800000E0401E00900028FBD1F6
:101D800001F02CF906461BE0816811F0010F03D128
:101D900081682940491C816001F020F9801B0228DC
:101DA0000ED920680068C043C00709D0E06D40F03C
:101DB0001000E065206E40F0010020660120F8BDB3
:101DC00020680168C943C907DED10020F8BD0000C2
:101DD0003F0000800003005010000020400D030071
:101DE00010B54FF0904400220221204601F0F1F896
:101DF00003F0F2FA00220421204601F0EAF8022062
:101E000004F008F901220221204601F0E2F8022044
:101E100004F000F920460022BDE81040022101F044
:101E2000D8B810B54FF0904400220221204601F0AE
:101E3000D0F803F0D1FA01220421204601F0C9F8BC
:101E4000022004F0E7F801220221204601F0C1F847
:101E5000022004F0DFF820460022BDE810400221F5
:101E600001F0B7B82DE9F0410746002403F0A1FACC
:101E700000254FF0904600220221304601F0A9F8DB
:101E8000022004F0C7F801220221304601F0A1F837
:101E90006006040E0421304601F096F808B1641C77
:101EA000E4B2012004F0B6F86D1CEDB2082DE2D3C7
:101EB00027B1FFF795FF2046BDE8F081FFF7B1FF9E
:101EC000F9E770B5054603F087FA4FF09046002217
:101ED0000221304601F07DF80024280601D50122B8
:101EE00000E000220421304601F073F86806050E78
:101EF000022004F08FF801220221304601F069F837
:101F0000022004F087F800220221304601F061F837
:101F1000022004F07FF8641CE4B2082CDDD370BD0D
:101F200010B503F059FA4FF09044012204212046E5
:101F300001F04FF801220221204601F04AF8042066
:101F400004F068F800220421204601F042F8042041
:101F500004F060F820460022BDE81040022101F0A4
:101F600038B810B503F038FA4FF09044002202213F
:101F7000204601F02EF800220421204601F029F825
:101F8000042004F047F801220221204601F021F844
:101F900001220421204601F01CF8BDE81040042075
:101FA00004F038B870B5002403F003FA4FF0904500
:101FB00001220421284601F00CF8012004F02AF83F
:101FC00001220221284601F004F807E0641CE4B273
:101FD000FA2C03D9FFF7C5FF012070BD012004F0E2
:101FE00019F80421284600F0EFFF0028EED1002266
:101FF0000221284600F0EDFF002070BD10B586B02C
:1020000014216846FEF712FA2448C16C41F0010120
:10201000C164C06C002100F0010005900220009016
:102020000120CDE901014FF090440390694620461C
:1020300000F0A6FE04200090112001906946204681
:1020400000F09EFE01220221204600F0C2FF012284
:102050000421204600F0BDFF012003F0A1FD072070
:1020600003F09EFD112003F09BFDDFED0D0A9FEDB7
:102070000D0A0D4802F0BCFC0C489FED0D1ADFED77
:102080000D0A90ED010A0848F8EE401A9FED0A0A81
:10209000103002F019FF06B010BD00000010024021
:1020A0000000FA43CDCC4C3E600400202C010020FF
:1020B0006F12033A17B7D1386F12833AFEE7000068
:1020C000014800F047BD0000E0020020014800F098
:1020D00041BD000080020020014800F03BBD00002F
:1020E000000400200D4902688A4201D20C4901E037
:1020F0000B492031D2B21423083AB2FBF3F2436CFD
:1021000002F01F0223F00303194481640449803163
:10211000C16401219140016570470000080402403C
:10212000000802400179074A02EB81024265054A34
:102130004432491E826501F01F0201219140C165B0
:1021400070470000FC08024030B5D0E913456560D7
:10215000446D14B1D0E91645656090F8444004F030
:102160001F050124AC40056C6C60046863608368E3
:10217000102B036803D099600068C26030BD9A607C
:102180000068C16030BD7047002240F6B83306E0F9
:102190000021491C89B29942FBD3521C92B282425F
:1021A000F6D3704772B6FEE72DE9F047044690F883
:1021B00058009CB00E464FF00009012822D00120A3
:1021C00084F8580000251795189520684FF0A0480E
:1021D000404519D1274F0097384602F0D1FB82467F
:1021E000206802F0CDFB50EA0A0115D0E06D40F006
:1021F0002000E0654FF0010984F8585048461CB0B3
:10220000BDE8F0870220FAE7E06D40F02000E065CD
:1022100084F858500120F2E71748316840F61F72E1
:102220000029816821F4604116D094F8383041EAE1
:102230004331736819438160D8F80810BB6801F016
:10224000010103F001031943D6D1B3683168194382
:102250008368934319430BE08160D8F80810BB688A
:1022600001F0010103F001031943C5D181689143D5
:102270008160C1E700010050000300502DE9F84FD4
:1022800000270446009790F85800DFF8DC930D46CD
:10229000B846012811D0012684F85860206802F061
:1022A0006BFB60B1E06D40F02000E0655FF001077E
:1022B00084F858803846BDE8F88F0220FBE7D5E95E
:1022C00000210C23206803EA91131844036B01F0EA
:1022D0001F014FF01F0C0CFA01FCC2F3846223EAC9
:1022E0000C038A4013430363206802F045FB8246D7
:1022F000206802F03DFB5AEA00003CD1AA68296838
:102300002068B2F1004F37D002F046FB20684169E7
:1023100021F00041416120686969C268C2F3C102CD
:10232000520091402A69042A31D000EB82002B68C8
:10233000026EDFF838C303F0F84302EA0C020B43E5
:102340001A4342F00041016620682A69A96900EB3E
:102350008200026E22F080720A430266297F2268A0
:102360002869012910D0002102EB8000026E22F0C2
:1023700000720A4302667DE0002202F00DFB206835
:10238000416941F00041C5E74FF00071ECE70021E1
:1023900002F0E8FA400320684FF0000172D002F02A
:1023A000E1FA90FAA0F0B0FA80F1286842036ED00A
:1023B00090FAA0F0B0FA80F0814204D100221146D8
:1023C000206802F0F8FA0121206802F0CBFA4003FD
:1023D00020684FF001015DD002F0C4FA90FAA0F03D
:1023E000B0FA80F12868420359D090FAA0F0B0FA10
:1023F00080F0814204D100220121206802F0DBFA42
:102400000221206802F0AEFA400320684FF002017A
:1024100048D002F0A7FA90FAA0F0B0FA80F128684C
:10242000420344D090FAA0F0B0FA80F0814204D187
:1024300000220221206802F0BEFA0321206802F087
:1024400091FA400320684FF0030133D002F08AFA7A
:1024500090FAA0F0B0FA80F1286842032FD090FAE9
:10246000A0F0B0FA80F0814204D10022032120685C
:1024700002F0A1FA2068816811F0010F22D0ABE0D0
:1024800000E004E002F06EFAC0F384618DE7C0F36F
:10249000846091E702F066FAC0F38461A2E7C0F3BA
:1024A0008460A6E702F05EFAC0F38461B7E7C0F388
:1024B0008460BBE702F056FAC0F38461CCE7C0F356
:1024C0008460D0E72A7B296850F8B03FC1F3120C32
:1024D00023EA0C0302F0180C654A22FA0CF20A40B7
:1024E00013430360E968494576D1286841031BD04E
:1024F00090FAA0F1B1FA81F1491C01F01F010929FC
:102500004FEA403131D8002911D090FAA0F1B1FA48
:1025100081F100BF01F1010101F01F0106FA01F68E
:1025200008D1C0F3846109E0C0F38461E4E7C0F33B
:102530008461EFE790FAA0F1B1FA81F101F10101B4
:1025400001F01F0146EA816102D1C0F3846003E01B
:1025500090FAA0F0B0FA80F000F1010000F01F0046
:1025600000EB400041EA005132E000290ED090FA21
:10257000A0F1B1FA81F100BF01F1010101F01F01E9
:1025800006FA01F605D1C0F3846106E0C0F3846168
:10259000F2E790FAA0F1B1FA81F101F1010101F045
:1025A0001F0146EA816102D1C0F3846003E090FA22
:1025B000A0F0B0FA80F000F1010000F01F002D4AF9
:1025C00000EB400002EB005041EA000141F00071D5
:1025D000AA68206802F0E0F927482A6802423FF41E
:1025E00067AE26488168264B01F0E0719A4202D01E
:1025F000244B9A421CD10B021AD42268B2F1A04F8C
:102600007FF456AE826841F4000122F0E0720A4382
:1026100082601D481D490068B0FBF1F0401C00EBD2
:102620004000800000E0401E00900028FBD13FE603
:10263000174D184BAA4207D1CD0105D422689A4202
:10264000F5D041F0807109E0134DAA42EFD14A0262
:10265000EDD422689A42EAD041F48001826822F0E7
:10266000E0720A43826023E600007F4000F0FF032F
:10267000FFFF0700000020FE00000880000300505C
:10268000000021C31000C09010000020400D030086
:10269000000052C700010050000084CB7047704713
:1026A00070470000F8B54FF0000504002E46009575
:1026B00002D0E06D10B107E00120F8BD204600F027
:1026C000EDF8266684F8586020688168C1F340718F
:1026D00019B18168694A1140816020688168C1F33D
:1026E000007189B98168664A114041F0805181606A
:1026F000644865490068B0FBF1F04000801C00E0D0
:10270000401E00900028FBD120688168C1F3007151
:1027100041B9E16D41F01001E165216E41F0010127
:102720002166012502F028F90646E06D00F010014F
:10273000E06D314305D040F01000E06501252846EA
:10274000F8BD20F4807040F00200E06520688068E9
:1027500010F0010F11D14FF0A04080684B4900F0FC
:102760000100896801F00101084306D14848616809
:10277000826822F47C120A438260E168E06B627F27
:102780000843A16841EA4231084394F8241040EA22
:102790000140012904D1218D3E4A02EB4141084309
:1027A000E16A29B101F47871226B014342EA010028
:1027B0002268D168384B19400143D1602068016913
:1027C000626B21F0406111430161206802F0D0F892
:1027D00006432ED1207F94F83810800340EA41024E
:1027E0002168C86844F2020398431043C860206916
:1027F0000028206801690AD041F480310161206815
:1028000050F8C01F22696FF30D01114307E021F456
:1028100080310161206850F8C01F6FF30D01016025
:1028200094F8400001280CD02068016921F00101D2
:102830000161606901282068016B21F00F0111D04E
:1028400013E0D4E911010843D4E9131211430843FA
:1028500021680A6940F2FC739A43104340F001007A
:102860000861E6E7226A521E11430163E06D20F021
:10287000020040F00100E06561E70000C0FFFF5F7B
:10288000C0FFFF7F10000020400D0300000100503A
:10289000000300500000FEFF0740F0FF2DE9F04F5D
:1028A00097B00646142111A8FDF7C0FD44216846E3
:1028B000FDF7BCFD4FF0005231680025454F9013E5
:1028C000454C4FF003094FF0800A4FF4007BB1F103
:1028D000A04F11D0414B994247D10F9280460090B2
:1028E000684600F079FC08B1FFF75CFC3868401CD2
:1028F000386001283CD043E00F920090684600F019
:102900006BFC08B1FFF74EFC3868401C38600128AA
:1029100007D1E06C40F40050E064E06C00F400503B
:102920001690E06C40F00200E064E06C139500F05B
:10293000020016904FF48050CDE9110911A92848E2
:1029400000F01EFA284C274820600520C4E9010544
:102950004FF40060C4E905B0C4E9035A2020C4E97B
:10296000070520462EE07465A66217B0BDE8F08F1B
:10297000E06C40F40050E064E06C00F4005016900D
:10298000E06C40F00200E064E06CCDF8448000F0C0
:102990000200CDE91295169011A9114800F0F0F946
:1029A000114C10486034143820602420C4E901051B
:1029B0004FF40060C4E905B0C4E9035A2020C4E91B
:1029C0000705204600F024F90028CCD0FFF7EAFBE9
:1029D000C9E7000000000020001002400001005084
:1029E000000400481C000240800200202DE9F04154
:1029F0000446344817468846806800F01F05206862
:102A000001F0BAFF00285AD194F85800012856D096
:102A1000012084F85800002625B1052D02D0092D8B
:102A200000D003E02046FFF785F918B184F858601C
:102A3000BDE8F081E06D40F60161884340F48070AC
:102A4000E06521492068884202D14FF0A04100E0B2
:102A50000146814200D01DB9E06D20F48010E06590
:102A6000E06DC00404D5206E20F00600206600E072
:102A70002666616D1548C862616D15480863616D11
:102A80001448486321681C20086084F85860206856
:102A9000416841F0100141602068C16841F00101C6
:102AA000C16021683B4642464031606D00F010F93C
:102AB00021688A68084B1A40121D8A60B8E7022014
:102AC000B6E700000003005000010050A91C0008F8
:102AD0002B1D0008111D0008C0FFFF7F70B590F886
:102AE0002520002401212346022A07D00422C263A4
:102AF00080F8251080F82430012429E00268156848
:102B000025F00E0515600268156825F001051560B1
:102B1000826C156825F48075156090F84420056C6A
:102B200002F01F0201FA02F26A60D0E91325556033
:102B3000426D32B1156825F480751560D0E916250F
:102B4000556080F8251080F82430816B01B18847EA
:102B5000204670BDF0B4016C0C6801680D6890F8F7
:102B6000442002F01F06042202FA06F3234211D089
:102B70006B070FD50B689B0603D40B6823F0040387
:102B80000B6090F8441001F01F018A40016C4A600C
:102B9000016B1DE0022303FA06F727424FF0000CF9
:102BA0004FF0010218D0AF0716D50C68A40605D463
:102BB0000C6824F00A040C6080F8252090F844107A
:102BC00001F01F018B40016C4B6080F824C0C16A8A
:102BD00000291AD0F0BC08470823B340234214D080
:102BE0002B0712D50B6823F00E030B6090F84410EE
:102BF000036C01F01F0102FA01F15960C26380F811
:102C0000252080F824C0416BE2E7F0BC704700004B
:102C100070B504000CD02B4A21681420914209D2CF
:102C2000294A0A44B2FBF0F08000606427480AE0B9
:102C3000012070BD234A52420A44B2FBF0F08000EA
:102C40006064204808382064022084F825000A685F
:102C500047F6F0708243D4E902031843D4E90435FF
:102C60002B431843A3691843E3691843236A1843A5
:102C7000104308602046FFF735FAA0680025B0F53C
:102C8000804F00D16560A16C20790860D4E9130100
:102C900041606068401E032808D82046FFF742FACA
:102CA000606D0560D4E91601416002E06565A565C7
:102CB000E565E563012084F8250084F824500020B0
:102CC00070BD000008040240F8FFFDBF0000024094
:102CD00070B5044690F82400002501280CD001208E
:102CE00084F8240094F825600020012E06D084F892
:102CF00024000225284670BD022070BD022684F8FB
:102D00002560E0632068066826F00106066020461C
:102D1000FFF71AFA206B00282068016802D041F002
:102D20000E0106E021F0040101602068016841F015
:102D30000A010160A06C0168C90303D5016841F470
:102D400080710160606D18B1016841F480710160AB
:102D50002068016841F001010160CBE770B50446CD
:102D600000F03CF90546601C02D004484068044469
:102D700000F034F9401BA042FAD370BD04000020DB
:102D80002DE9F04FDFF82092002301260324A9F15A
:102D9000040B85B00F2709F1040AABF1040EFAE029
:102DA00006FA03F52A407CD091F804C00CF0030C1D
:102DB000BCF1010F02D0BCF1020F26D1D0F808C03F
:102DC000CDF800C04FEA430C04FA0CF8CDF810C05F
:102DD000DDF800C02CEA080CCDF800C0D1F80C805A
:102DE000DDF810C008FA0CF8DDF800C048EA0C085D
:102DF000C0F80880D0F804C02CEA050C0D79C5F3A2
:102E000000159D4045EA0C0545600D79ED43AD0781
:102E10000ED0C5684FEA430804FA08FC25EA0C0501
:102E2000D1F808C00CFA08FC4CEA050CC0F80CC03C
:102E30000D7905F00305022D16D1DD0800EB850C98
:102E4000CDF808C0DCF820805D074FEAD56C07FAA2
:102E50000CF528EA05080D6905FA0CF5DDF808C03F
:102E600045EA0805CCF8205005684FEA430CCDF838
:102E700008C004FA0CFC25EA0C0591F804C00CF01B
:102E80000308DDF808C008FA0CF848EA0508C0F89D
:102E900000804D6815F4403F7CD0444DD5F860C0AB
:102EA00000E077E04CF0010CC5F860C02D6E23F017
:102EB000030C05F0010500953D4D65440295AD6894
:102EC0004FEA837C4FEA1C7807FA08FC25EA0C05D8
:102ED000B0F1904F06D0DFF8DCC0604505D14FF06F
:102EE000010C20E04FF0000C1DE0DFF8CCC0604585
:102EF00002D14FF0020C16E0DFF8C0C0604502D1ED
:102F00004FF0030C0FE0DFF8B8C0604502D14FF07E
:102F1000040C08E0DFF8ACC0604502D14FF0050CAE
:102F200001E04FF0060C0CFA08FC4CEA050C029D7F
:102F3000C5F808C0D9F80050CC46D1F804809543B4
:102F40005FEAC82800D51543CCF80050DAF80050E5
:102F5000D446D1F8048095435FEA882800D515430C
:102F6000CCF80050DBF80050DC46D1F804809543E3
:102F70005FEA883800D51543CCF80050DEF80050E1
:102F8000F446D1F8048095435FEAC83800D515436C
:102F9000CCF800505B1C0A6832FA03F57FF400AFEE
:102FA00005B0BDE8F08F00000804014000100240A9
:102FB000000001400004004800080048000C0048E0
:102FC00000100048001400480069084000D00120AB
:102FD00070470AB18161704781627047014880681B
:102FE00070470000040000200248816842681144D4
:102FF000816070470400002010B50024032000F019
:1030000073F80F2000F008F808B1012401E000F087
:1030100025F8204610BD000070B50E4E0546002470
:10302000706898B14FF47A71B1FBF0F00A49096801
:10303000B1FBF0F000F0D2FE40B9102D06D2002214
:103040002946501E00F030F8356000E0012420468B
:1030500070BD000004000020100000200A4882B06B
:10306000016E41F001010166016E01F00101009164
:10307000816D41F080518165806D00F0805000903D
:1030800002B000F0A1B8000000100240002809DBE7
:1030900000F01F02012191404009800000F1E02072
:1030A000C0F8001170470000F0B40E4B1B680C46CE
:1030B000C3F30223C3F10705042D00D90425191D0C
:1030C000072901D2002300E0DB1E012606FA05F1E4
:1030D000491E214099409E40761E16403143F0BC67
:1030E00002F030BD0CED00E0064900F00702086870
:1030F0004FF6FF03184040EA0220034A10430860DD
:10310000704700000CED00E00000FA052B492C4B45
:103110000A6832214A432B4940B1B0F5007F086864
:1031200029D020F4C06040F480602CE00868C0F32F
:103130004120022804D051F8800F20F4807022E052
:10314000D1F8800020F48070C1F88000086820F475
:10315000C06040F400700860B2FBF3F0401C00E077
:10316000401E4A69520501D50028F9D14869400539
:103170000AD503207047C0F34120022806D051F839
:10318000800F40F48070086000207047D1F8800004
:1031900040F48070C1F88000086820F4C06040F4FA
:1031A00000700860B2FBF3F0401C00E0401E4A696A
:1031B0005205DBD50028F9D1D8E700001000002027
:1031C00040420F00007000400248816841F4804195
:1031D00081607047007000402DE9F84304460068A4
:1031E00000269D4D00035ED5A86D0027C00008D4C1
:1031F000A86D40F08050A865A86D012700F08050B0
:103200000090DFF85892D9F8001041F48071C9F8A5
:103210000010FFF7E3FE804606E000BFFFF7DEFE8A
:10322000A0EB080002282BD8D9F80000C005F5D57E
:10323000D5F8900010F4407014D0216C814211D068
:10324000D5F89000D5F8901020F4407041F480310A
:10325000C5F89010D5F8901021F48031C5F8901081
:10326000C5F89000C00711D0FFF7B8FE804641F2C4
:10327000883907E0FFF7B2FEA0EB0801494501D904
:1032800003260BE0D5F890008007F3D5D5F8900021
:10329000216C20F440700843C5F890001FB1A86D60
:1032A00020F08050A8652078C00707D0D5F88800A6
:1032B000616820F003000843C5F888002078800783
:1032C00007D5D5F88800A16820F00C000843C5F8A0
:1032D00088002078400707D5D5F88800E16820F0FD
:1032E00030000843C5F888002078000707D5D5F8D6
:1032F0008800216920F0C0000843C5F888002078C4
:10330000800607D5D5F88800616920F4406008433D
:10331000C5F888002078400607D5D5F88800A1694F
:1033200020F440500843C5F888002078000607D5EF
:10333000D5F88800E16920F440400843C5F88800CA
:103340002088C00507D5D5F88800216A20F44030D0
:103350000843C5F888002088800507D5D5F888007F
:10336000616A20F440200843C5F8880020884005A1
:103370000FD5D5F88800A16A20F440100843C5F89D
:103380008800A06AB0F5801F03D1E86840F480107F
:10339000E860208800050FD5D5F88800E16A20F4A0
:1033A00040000843C5F88800E06AB0F5800F03D1FB
:1033B000E86840F48010E8602088C0040FD5D5F894
:1033C0008800216B20F040700843C5F88800206B0E
:1033D000B0F1807F03D1E86840F48010E860208875
:1033E0004FF0006180040ED5D5F88800626B20F0A4
:1033F00040601043C5F88800606B884203D1E868DC
:1034000040F48010E860208840040ED5D5F888008C
:10341000A26B20F040601043C5F88800A06B884282
:1034200003D1E86840F48010E860208800040FD5DC
:10343000D5F88800E16B20F040500843C5F88800BB
:10344000E06BB0F1805F03D1E86840F48030E86061
:103450003046BDE8F88300000010024000700040D4
:103460002DE9F0470E4605004FF0000725D0DFF8A4
:10347000AC81D8F8000000F00F00B0420CD2D8F8B0
:10348000001021F00F013143C8F80010D8F80000F7
:1034900000F00F00B04210D12968614CC80741F21A
:1034A000883A5AD06868DFF87C91032808D002284F
:1034B00020682DD0400500282CDB0120BDE8F087D6
:1034C00020688001F9D5E06800F00302E068C0F3ED
:1034D0000310401C032A19D0534A00BFB2FBF0F07E
:1034E000E268C2F306225043E268C2F34162521C12
:1034F0005200B0FBF2F0484517D9A06810F0F00F69
:103500000CD0880711D5A86840B10EE0474AE5E71E
:103510008003D0E700F092F8484506D9A06820F073
:10352000F00040F08000A0608027A068696820F06B
:1035300003000843A060FFF751FD814606E000BF8D
:10354000FFF74CFDA0EB090151453AD8A068696826
:1035500000F00C00B0EB810FF2D12868810714D580
:10356000400703D5A06840F4E060A0602878000719
:1035700005D5A06820F4605040F4E060A060A06829
:10358000A96820F0F000084304E0802F03D1A06870
:1035900020F0F000A060D8F80010404601F00F01C4
:1035A000B14216D9016821F00F0131430160FFF7E4
:1035B00015FD074607E000BFFFF710FDC11B514591
:1035C00001D903207AE7D8F8000000F00F00B042DC
:1035D000F2D12878400705D5A068E96820F4E060BA
:1035E0000843A0602878000706D5A068296920F460
:1035F000605040EAC100A06000F020F8A1680C4AC9
:10360000C1F30311515C01F01F01C8400949086072
:1036100009480068BDE8F047FFF7FEBC0020024003
:103620000010024000B4C4040024F40000127A0028
:10363000726600081000002004000020184910B530
:103640008868C0F381021748012A0BD08A684310AA
:10365000C2F38102022A06D08A68C2F38102032AD9
:1036600003D0002010BD184610BDCA6802F0030444
:10367000CA68C2F30312521C032C02D0B0FBF2F052
:1036800001E0B3FBF2F0CA68C968C2F306225043F6
:10369000C1F34161491C4900B0FBF1F010BD0000CD
:1036A000001002400024F4002DE9F84304007AD011
:1036B0002078F84DC00747D0A868E96800F00C00F2
:1036C00001F003010C2802D0082817D001E00329DB
:1036D00014D06068B0F5803F17D0B0F5A02F2868EF
:1036E00017D020F480302860286820F480202860DB
:1036F0006068E0B1FFF772FC064614E028688003BA
:1037000022D560680028D2D01EE0286840F48030BE
:10371000EDE740F480202860F7E700BFFFF75EFC8C
:10372000801B642870D828688003F7D50CE0FFF769
:1037300055FC064605E000BFFFF750FC801B6428DF
:10374000F0D828688003F7D4207880074CD5A86883
:10375000E96800F00C0001F003010C2802D00428F5
:103760000DD001E002290AD0E068002828682BD09B
:1037700040F480702860FFF731FC064619E02868A5
:10378000400502D5E068002891D06868217C20F0CF
:10379000FE4040EA01606860BF480068FFF73CFCFB
:1037A000002800D120E072E1FFF718FC801B0228FE
:1037B000B8D828684005F7D56868217C20F0FE401D
:1037C00040EA016068600FE020F480702860FFF735
:1037D00005FC064605E000BFFFF700FC801B022841
:1037E000A0D828684005F7D42078000729D560695B
:1037F0000028D5F8940013D040F00100C5F89400DB
:10380000FFF7ECFB064606E090E000BFFFF7E6FBA3
:10381000801B022886D8D5F894008007F6D510E0E2
:1038200020F00100C5F89400FFF7D8FB064604E03D
:10383000FFF7D4FB801B022878D8D5F894008007C6
:10384000F6D42078400761D5A86D0026C00008D4C2
:10385000A86D40F08050A865A86D012600F080504A
:1038600000908E480168C90511D40168804641F472
:1038700080710160FFF7B2FB074604E0FFF7AEFB83
:10388000C01B022852D8D8F80000C005F6D5A068A1
:10389000012815D00528D5F8900016D020F0010099
:1038A000C5F89000D5F8900020F00400C5F890000D
:1038B000A06841F28838B8B1FFF790FB07460EE0E8
:1038C000D5F8900040F00100F0E740F00400C5F8A2
:1038D0009000F5E7FFF782FBC11B414526D8D5F8DC
:1038E00090008007F6D50CE0FFF778FB074604E070
:1038F000FFF774FBC11B414518D8D5F8900080072D
:10390000F6D41EB1A86D20F08050A86520788006FE
:1039100029D5A0690028D5F8980013D040F00100FF
:10392000C5F89800FFF75AFB064606E075E000BFB1
:10393000FFF754FB801B02286FD8D5F8980080074A
:10394000F6D510E020F00100C5F89800FFF746FB1F
:10395000064604E0FFF742FB801B02285DD8D5F83D
:1039600098008007F6D4E069F0B3A968C1F381013B
:1039700003295DD00228286820F08070286003D0D9
:10398000FFF72CFB04464BE0FFF728FB064604E05C
:10399000FFF724FB801B02283FD828688001F7D45A
:1039A000F4E908016FF00F0202EB01110843218ACC
:1039B0005204490802EB4151A26841EA022108433E
:1039C000217D4FF07E42490802EB41610843217B93
:1039D00040EAC160E968324A11400843E86028685B
:1039E00040F08070286000E05EE0E86840F08070A1
:1039F000E860FFF7F3FA044605E000BFFFF7EEFAD0
:103A0000001B022809D828688001F7D54CE000BFC8
:103A1000FFF7E4FA001B022802D90320BDE8F8836F
:103A200028688001F4D4E8681E490840E8603BE05B
:103A30000128F3D0E868226A00F00301914226D100
:103A4000616A00F0F0020901103991421FD1A26AA7
:103A500000F4FE41B1EB022F19D194F82C2000F0B4
:103A60007841B1EBC26F12D1218E00F4C002490837
:103A70004905A1F50011914209D194F8341000F0E4
:103A8000C06049084906A1F1007181420CD00120B3
:103A9000C4E7000000100240040000200070004055
:103AA0000C809F01FCFFEEFE0020B7E710B5006818
:103AB0000B4641680D480140080CD870C1F304243E
:103AC0005C7001F03F049C70C1F34231197052B92F
:103AD00001F00DFCD870587801F009FC5870987806
:103AE00001F005FC9870002010BD00003FFFFF00B2
:103AF00010B50B4601688968596001680969C1F30E
:103B00000E019960006801680D480140C1F305404D
:103B10001870C1F306245C7001F07F049C70890D5D
:103B2000D97052B901F0E3FB1870587801F0DFFB4F
:103B30005870987801F0DBFB9870002010BD0000F1
:103B40007F7F7F0070B504004FF0010040D094F8F3
:103B5000250028B9002084F82400204600F040F811
:103B6000022084F825002068C168C943C90630D501
:103B7000CA214162216853204862204601F0CCFBF3
:103B800010BB20688169154A1140816121688869EC
:103B90006268A369104322691A431043886121892E
:103BA000E06840EA014021680861204601F0D9FB45
:103BB00050B9D4E90721114322686369956925F05A
:103BC00060452B43194391612268FF21516208B17E
:103BD00070BD0020012184F8251070BDBFFF8FFB50
:103BE00010B592B0044644216846FCF71FFC10490A
:103BF0002068884219D14FF4002000908012109064
:103C00006846FFF7E9FA08B1FEF7CCFA094850F820
:103C1000901F41F4004140F83819016841F4806177
:103C20000160006800F48060119012B010BD0000C7
:103C3000002800400010024070B5044690F82400AF
:103C40000B4601281BD0012684F82460022084F84A
:103C50002500B2B19878D97840EA014558781978AA
:103C6000000240EA413005432168CA2048622168C9
:103C700053204862204601F04FFBD0B120E00220E3
:103C800070BD5878C10603D500F0EF000A305870B7
:103C9000D87801F035FB0504587801F031FB45EA8E
:103CA0000025987801F02CFB0543187845EA40354B
:103CB000DAE70848054020684560204601F051FBDE
:103CC0002268FF21516208B984F82560002184F838
:103CD000241070BD3FFFFF002DE9F041044690F82D
:103CE000240090460D46012811D0012784F8247045
:103CF000022084F825002168CA20486221685320E8
:103D00004862204601F008FB002618B129E0022095
:103D1000BDE8F0812068B8F1000F80694FEA40608B
:103D200024D0002800DBEE70A8782978EA7840EAF1
:103D300001406978090241EA825108431849084064
:103D4000216808602068816921F480218161D5E9BA
:103D50000301084321688A6910438861204601F005
:103D600000FB2268FF215162A0B115E0002800DBB2
:103D7000EE70287801F0C4FA0304687801F0C0FA04
:103D800043EA0023A87801F0BBFA0343E87843EA4A
:103D90008050D3E784F8257084F82460B8E70000E9
:103DA0007F7F7F0070B504460B482168C860FFF72D
:103DB00015F905464FF47A7607E000BFFFF70EF9D4
:103DC000401BB04201D9032070BD2068C068800646
:103DD000F4D5002070BD00005F00010010B5401E4A
:103DE000B0F1807F01D3012010BD4FF0E02460616D
:103DF0000F21601701F0A6FE0020A06107202061BE
:103E0000002010BD30B590F83C20012A42D001229C
:103E100080F83C20CA688B6822F440721A434B68D1
:103E200022F480621A430B6822F400621A430B6981
:103E300022F480521A434B6922F400521A430B6B4E
:103E400022F480421A430B8B22F4702242EA03428E
:103E5000CB6922F080521A430F4D03680024AB4215
:103E600002D00E4DAB4210D10D8D22F4700242EA09
:103E700005520D6A22F080722A434D6A22F00072C8
:103E80002A43C96A22F000520A435A6480F83C402F
:103E9000002030BD022030BD002C01400034014024
:103EA000F0B590F83C20012A3AD0012580F83C502A
:103EB000022280F83D2003685A689C68194E1A4F08
:103EC000B34201D0BB4204D122F4700C4A6842EAEA
:103ED0000C02DFF858C002EA0C02D1F800C04CEA2C
:103EE000020CC3F804C00268B2420DD0B2F1804F98
:103EF0000AD00F4B9A4207D00E4B9A4204D0BA42D6
:103F000002D00D4B9A4204D1896824F080031943F2
:103F1000916080F83D50002180F83C100846F0BDCB
:103F20000220F0BD002C0140003401408FFFFFFD56
:103F300000040040000800400040014070470000BD
:103F400030B587B0044614216846FCF76FFA246840
:103F5000164D0022164902234FF09040AC420DD17D
:103F6000CC6C44F00104CC64C96C01F001010591F2
:103F700099020091CDE901320B210FE00D4DAC42C9
:103F800011D1CC6C44F00104CC64C96C01F0010186
:103F90000591A9140091CDE901320A21CDE903214F
:103FA0006946FEF7EDFE07B030BD0000002C014071
:103FB000001002400008004070B5044690F83C0034
:103FC00000260D4601280BD0012084F83C000C2A65
:103FD0004AD007DC82B1042A20D0082A06D131E079
:103FE000022070BD102A53D0142A63D0012600206D
:103FF00084F83C00304670BD206801F035FB206835
:10400000816941F0080181612068816921F0040122
:104010008161206881692A69114311E0206801F0FB
:1040200071FB2068816941F40061816120688169C8
:1040300021F480618161206881692A6941EA022155
:104040008161D4E7206801F0A5FB2068C16941F0D7
:104050000801C1612068C16921F00401C1612068C3
:10406000C1692A69114311E0206801F0DBFB206877
:10407000C16941F40061C1612068C16921F48061B6
:10408000C1612068C1692A6941EA0221C161AEE7C4
:10409000206801F00FFC2068016D41F00801016506
:1040A0002068016D21F0040101652068016D2A6915
:1040B000114311E0206801F035FC2068016D41F4E6
:1040C000006101652068016D21F48061016520684F
:1040D000016D2A6941EA0221016588E710B50400F3
:1040E00003D094F83D0010B107E0012010BD00207E
:1040F00084F83C00204600F023F8022084F83D00BC
:10410000211D206801F0D0F9012084F8480084F8CE
:104110003E0084F83F0084F8400084F8410084F8B1
:10412000420084F8430084F8440084F8450084F891
:10413000460084F8470084F83D00002010BD0000D0
:1041400038B505460068194A1949904221D1086ED0
:1041500040F400600866086E174C00F400600090A0
:10416000144820602D2060601020A0600020802175
:10417000C4E90301490061618900C4E906102062B5
:104180002046FEF745FD08B1FEF70CF82C63A5624A
:1041900038BD0A4A9042FBD1886D40F00400886522
:1041A000886D00F00400009038BD0000002C014034
:1041B00000100240300002400004002000080040CF
:1041C0007047704730B50446022269B1042912D005
:1041D000082917D00C291CD0102921D094F84300AD
:1041E000012824D0012030BD94F83E000128F9D1E7
:1041F00084F83E201DE094F83F000128F2D184F8B5
:104200003F2016E094F840000128EBD184F84020CC
:104210000FE094F841000128E4D184F8412008E03F
:1042200094F842000128DDD184F8422001E084F8AE
:1042300043200122206801F095F9194B20681949A3
:10424000194A984209D0884207D0904205D0174DAC
:10425000A84202D0164DA84203D1456C45F4004552
:104260004564206898420CD0B0F1804F09D0114BC2
:10427000984206D0104B984203D0884201D0904219
:1042800007D181680D4A1140062906D0B1F5803F5B
:1042900003D0016841F001010160002030BD000041
:1042A000002C014000340140004001400044014026
:1042B00000480140000400400008004007000100E1
:1042C0002DE9F04117460D0004464FF0000610D0CE
:1042D000042D15D0082D1AD00C2D1FD0102D24D050
:1042E00094F84300022827D094F84300012826D0F0
:1042F0007CE094F83E0002281ED094F83E00F5E7DA
:1043000094F83F00022817D094F83F00EEE794F8A5
:104310004000022810D094F84000E7E794F84100EC
:10432000022809D094F84100E0E794F842000228FE
:1043300002D094F84200D9E70220BDE8F0819FB393
:1043400093B35349534ADFF850C1022055B1042DAD
:1043500019D0082D29D00C2D38D0102D48D084F834
:10436000430047E084F83E00606AC162606A3946F3
:104370000263606AC0F834C02268606A3432FEF7B3
:10438000A7FC88B938E084F83F00A06AC162A06A3F
:1043900039460263A06AC0F834C02268A06A383285
:1043A000FEF796FC00B92CE020E084F84000E06ABB
:1043B000C162E06A39460263E06AC0F834C022682C
:1043C000E06A3C32FEF784FC80B91FE084F84100CB
:1043D000206BC162206B39460263206BC0F834C089
:1043E0002268206B4032FEF773FCA0B10120A4E7E5
:1043F00084F84200012648E02068C16841F4007159
:104400000DE02068C16841F4806108E02068C1685F
:1044100041F4006103E02068C16841F48051C1604B
:1044200001222946206801F09DF81C4920681C4A99
:104430001C4B884209D0904207D0984205D01A4DB3
:10444000A84202D0194DA84203D1456C45F400455D
:104450004564206888420CD0B0F1804F09D01449DF
:10446000884206D01349884203D0904201D0984236
:1044700007D18168104A1140062906D0B1F5803F66
:1044800003D0016841F001010160304655E70000AA
:104490007F550008DD55000815560008002C014026
:1044A0000034014000400140004401400048014008
:1044B00000040040000800400700010070B50D0036
:1044C00004464FF0000607D0042D0CD0082D11D063
:1044D0000C2D16D0012655E02068C16821F400712A
:1044E000C160606A13E02068C16821F48061C16026
:1044F000A06A0CE02068C16821F40061C160E06A34
:1045000005E02068C16821F48051C160206BFEF78E
:10451000E5FA00222946206801F024F8224B41F2F6
:10452000111120688A0098420BD0204B984208D085
:104530001F4B984205D01F4B984202D01E4B984209
:1045400009D1036A0B4206D1036A134203D1436CBB
:1045500023F4004343642068036A0B4206D1016AD6
:10456000114203D1016821F00101016001205DB118
:10457000042D0CD0082D0DD00C2D0ED0102D0FD0E9
:1045800084F84300304670BD84F83E00FAE784F8B2
:104590003F00F7E784F84000F4E784F84100F1E7D2
:1045A00084F84200EEE70000002C01400034014096
:1045B000004001400044014000480140FEE7000087
:1045C00000B585B014216846FBF730FF4FF6FF7049
:1045D000009000200321CDE90201019069460248C4
:1045E000FEF7CEFB05B000BD0008004800B585B061
:1045F00014216846FBF71AFF4FF6FF700090012068
:104600000190032003900020029069460248FEF7C3
:10461000B7FB05B000BD00000008004870B50024DD
:1046200005462146204600F049F9222000F05AF9BB
:104630000F490F4A0F4810394FF49633166846F465
:10464000007616600E6846F480760E600560166887
:1046500046F0200616600E6846F020060E600E68D2
:1046600046F400760E60641C9C42E7D370BD0000E7
:10467000280400481408004830B587B01421684663
:10468000FBF7D4FE1E48C16C41F00401C164C16C4B
:1046900001F004010591C16C41F00101C164C16CDC
:1046A00001F001010591C16C41F00201C164C06CCF
:1046B000012500F0020005904FF44870CDE9000597
:1046C00000240394694602940E48FEF759FB280221
:1046D00003940090CDE901544FF090446946204680
:1046E000FEF74EFBFFF782FFA06940F48070A061E7
:1046F00004481830016841F40871016007B030BD0A
:104700000010024000040048203AD2B2034B02EBF2
:10471000420203EB021200F019B8000082660008A2
:10472000F0B50E460746002540F23F1407E021464B
:104730003846FFF7E9FF103C6D1CA4B2761C3278B6
:10474000002A01D0142DF2D3F0BD00002DE9F74F5F
:10475000914600270646019900F0B0F8234C234DFE
:10476000DFF88CA0DFF88CB0103C222000F0BAF803
:104770000020012152465B4639F817C001FA00F8C3
:104780001CEA080FD5F800C04CF4007CC5F800C046
:10479000D4F800C04CF4807CC4F800C002D1B2F858
:1047A00002C001E0B2F800C0C3F800C0D5F800C0F4
:1047B0004CF0200CC5F800C0D4F800C04CF0200C20
:1047C000C4F800C0D4F800C04CF4007CC4F800C0A9
:1047D000401C1028D0D3761CF6B23046019900F068
:1047E0006DF87F1C182FC0D3BDE8FE8F2804004849
:1047F000400100201408004810B5FFF73DFF0020DD
:1048000000F014F8084CA080A088A0F502413039CF
:1048100006D000F06BFC002000F008F8A08010BD6E
:1048200000F0DBFBF7E700004001002070B51D49F8
:104830000A6842F400720A600A6842F480720A60F0
:10484000184C103C226842F020022260164A106088
:10485000086840F02000086000BF00BF00BF20686B
:1048600040F020002060206840F480702060FFF756
:10487000A7FE4FF09041886A40F48070886200BFC4
:1048800000BF00BF0848001F006885B2886940F477
:1048900080708861FFF7AAFE206840F400702060F5
:1048A000284670BD280400481408004801B5BDF82A
:1048B00000000149488008BD4001002010B50C46A9
:1048C0000146202000F02CF82146BDE810402120B0
:1048D00000F026B801B5BDF800000149088008BD08
:1048E000400100200C490A6842F480720A600A689C
:1048F00042F400720A60094A1060086840F0200023
:10490000086005481038016841F020010160016825
:1049100041F4007101607047280400481408004801
:1049200000B50B46FFF7DEFF0C4A106840F400703C
:1049300010600A481038016841F48071016008492C
:104940000B60116841F020011160016841F0200105
:104950000160016841F40071016000BD2804004855
:104960001408004800EB8100006E00F0F84070472A
:104970008068C0F3C00070478068C0F38000704753
:104980008068C0F380007047C06810F4406F01D0A9
:104990000020704701207047042303EAD15310B56B
:1049A00018444369C1F3045107248C40A3438A404F
:1049B0001343436110BD00EB8100016E21F0004103
:1049C0001143016670470FB410B586B004460AAAB9
:1049D00068460999FBF7E6FC04EB4400C006000EAC
:1049E0006946FFF79DFE06B010BC5DF814FB0000A1
:1049F000002816D0B5EEC00AF1EE10FA02D89FEDED
:104A0000090A06E010EE101AB1F17E5F01DDB7EE83
:104A1000000A80ED010AC0ED000A00218160012139
:104A200001737047CDCC4C3EF0EE400A98B1017B4B
:104A300089B190ED011AB7EE000AD0ED001A30EE00
:104A4000410A20EE210A01EE200A80ED000A816869
:104A5000491C81607047B0EE600A704700B580B1B4
:104A6000027B72B100EE101AB8EE400AFFF7DCFFCD
:104A7000F6EE000A30EE200ABCEEC00A10EE100A74
:104A800000BD084600BD000030B58BB0002408947E
:104A90000994202168460A94FBF7C8FC1C484FF093
:104AA000A041042501604FF44031C0E90114C46005
:104AB0000461C0E90545047701214177016280F86E
:104AC0002440C462046380F83810C46380F8404016
:104AD000FDF7E8FD08B1FDF765FB08A90C4808944F
:104AE000FDF762FB08B1FDF75DFB0A480090062068
:104AF000CDE901047F200594CDE90305694604480A
:104B0000FDF7BCFB002801D0FDF74CFB0BB030BD1E
:104B1000A80100200008302E30B589B02021684659
:104B2000FBF784FC19481849002401604FF4403118
:104B3000C0E90114C46004250461C0E90545047797
:104B400001214177016280F82440C462046380F847
:104B50003810C46380F84040FDF7A4FD08B1FDF7AC
:104B600021FB0B4800900620CDE901047F2005942D
:104B7000CDE9030569460548FDF780FB002801D013
:104B8000FDF710FB09B030BD0001005014020020F9
:104B90000080F03E154808B5816C41F00401816445
:104BA000816C01F004010091816C41F0010181648C
:104BB000806C002200F00100009011460B20FEF7EF
:104BC00073FA0B20FEF762FA002211460C20FEF762
:104BD0006BFA0C20FEF75AFA002211460D20FEF760
:104BE00063FABDE808400D20FEF750BA00100240FD
:104BF0002DE9F04F87B014216846FBF717FC3F48BA
:104C0000C16C41F00401C164C16C01F00401059163
:104C1000C16C41F02001C164C16C01F0200105911B
:104C2000C16C41F00101C164C16C01F00101059149
:104C3000C16C41F00201C164C16C01F00201059137
:104C4000C16C41F00801C164C06CDFF8B48000F0B1
:104C500008004FF6C0740590002221464046FEF73A
:104C6000B8F94FF483764FF0904900223146484618
:104C7000FEF7AFF9DFF88CA0012204215046FEF7C1
:104C8000A8F9DFF884B04FF44A7700223946584635
:104C9000FEF79FF90125CDE90045002402946946FD
:104CA00040460394FEF76CF8CDE900546946484647
:104CB0000295FEF765F80096CDE90154694648462D
:104CC0000394FEF75DF807208DE8310069465846E9
:104CD000FEF756F804200090CDE90154694650468D
:104CE0000394FEF74DF80097CDE901546946584604
:104CF0000394FEF745F807B0BDE8F08F00100240BE
:104D000000080048000C00480004004810B586B0B8
:104D100014216846FBF78AFB214800241F490594AB
:104D2000C0E900147F218160FF21C0E903144FF026
:104D300080414461C0E906410462FEF703FF08B107
:104D4000FDF730FA17208DF800003A208DF80100A9
:104D50001E208DF802000194039400226946104839
:104D60000494FEF7B9FF08B1FDF71CFA03208DF893
:104D7000140001208DF8150016208DF8160019205A
:104D80008DF81700002205A90548FEF755FF0028F9
:104D900001D0FDF707FA06B010BD00000028004062
:104DA0004003002010B598B00024149415941C21E1
:104DB0000DA81694FBF73AFB34216846FBF736FB47
:104DC00023482249C0E90014D421C0E9024104610A
:104DD00044618461FFF782F908B1FDF7E3F91494A7
:104DE000159414A91A481694FFF75AF808B1FDF75C
:104DF000D9F96020CDE90D040F9410941194129408
:104E00000C220DA912481394FFF7D6F808B1FDF74C
:104E1000C9F900944FF40050CDE904400394000315
:104E2000CDE9084001940294069407940A940B94E7
:104E3000694607480C94FEF7E5FF08B1FDF7B2F9A3
:104E40000348FFF77DF818B010BD0000002C0140AA
:104E50006803002010B58AB00024079408941C2130
:104E600068460994FBF7E2FA15481449C0E90014B2
:104E70004FF6FF71C0E9024104618461FFF72EF92A
:104E800008B1FDF78FF9079407A90D480994FFF7BA
:104E900007F808B1FDF786F96020CDE90004029417
:104EA0000422694606480494FFF786F808B1FDF726
:104EB00079F90348FFF744F80AB010BD0008004034
:104EC000B4030020FEE7FEE780EC040ADFED070AEA
:104ED0009FED070AC0ED040AC0ED050AC0ED060A01
:104EE00080ED070AC0ED080A7047000000000000CE
:104EF0000000C84280ED030A9FED030A80ED050A19
:104F000080ED040A7047000000000000F5EEC00AC2
:104F1000F1EE10FA01D8DFED280A90ED031A90EDBA
:104F2000053A31EE401A90ED000A01EE203A20EEEB
:104F3000014A80ED053AD0ED012A90ED072AD0ED27
:104F4000081AC2EE223A81EEA20AB4EEE33AF1EE7A
:104F500010FA01DDC0ED053A90ED053AB4EEC03A25
:104F6000F1EE10FA02D3B0EE430A01E080ED050A3B
:104F700022EE800AD0ED042A31EE623A34EE000AC5
:104F8000C3EE202AD0ED020A60EEA20A30EE200A1B
:104F9000B4EEC02AF1EE10FA01D2B0EE420AF4EEFD
:104FA000C01AF1EE10FA01DDB0EE610A80ED041ACC
:104FB00080ED060A704700006F12833A642800D91A
:104FC000642004490A68D16A41436420B1FBF0F0CF
:104FD00090637047B4030020704730B50121002072
:104FE000FFF79EFC4FF47A70FDF7CEF80021012008
:104FF000FFF796FC41F290711020FFF791FC4FF4FF
:105000001C516020FFF78CFC01216120FFF788FC18
:1050100002214620FFF784FC48F210011320FFF71D
:105020007FFC48F2FE011220FFF77AFC4FF4A061EA
:105030000220FFF775FC41F230010320FFF770FCFE
:1050400040F2033421463020FFF76AFC214631202C
:10505000FFF766FC21463220FFF762FCE51E294679
:105060003320FFF75DFC03213420FFF759FC214674
:105070003520FFF755FC14213620FFF751FC21465F
:105080003720FFF74DFC21463820FFF749FC214629
:105090003920FFF745FC29463A20FFF741FC032160
:1050A0003B20FFF73DFC21463C20FFF739FC4FF445
:1050B000A0513D20FFF734FC4FF400719220FFF720
:1050C0002FFC21469320FFF72BFC40F60D0190208A
:1050D000FFF726FC41F218010320FFF721FCBDE891
:1050E000304040F273110720FFF71ABC10B543F2AD
:1050F0000801E320FFF714FC1221E720FFF710FC62
:1051000041F23121EF20FFF70BFC00210120FFF7D6
:1051100007FC4FF4E0610220FFF702FC41F230018E
:105120000320FFF7FDFB00210420FFF7F9FB40F20D
:1051300007210820FFF7F4FB00210920FFF7F0FB0F
:1051400000210A20FFF7ECFB00210C20FFF7E8FB11
:1051500000210D20FFF7E4FB00210F20FFF7E0FB0B
:1051600000211020FFF7DCFB07211120FFF7D8FBFF
:1051700000211220FFF7D4FB00211320FFF7D0FB02
:10518000C820FDF7EBFD41F290611020FFF7C8FB4E
:1051900040F227211120FFF7C3FB3220FDF7DEFD8F
:1051A0001D211220FFF7BCFB3220FDF7D7FD4FF485
:1051B00000611320FFF7B4FB14212920FFF7B0FB97
:1051C0000B212B20FFF7ACFB3220FDF7C7FD0021A0
:1051D0002020FFF7A5FB00212120FFF7A1FB0721DD
:1051E0003020FFF79DFB40F207713120FFF798FB5D
:1051F00006213220FFF794FB40F204713520FFF7BF
:105200008FFB41F604713620FFF78AFB042137201B
:10521000FFF786FB00213820FFF782FB40F2067182
:105220003920FFF77DFB40F201713C20FFF778FB4E
:105230000F213D20FFF774FB00215020FFF770FB8A
:10524000EF215120FFF76CFB00215220FFF768FB94
:1052500040F23F115320FFF763FB4FF41C516020D5
:10526000FFF75EFB01216120FFF75AFB00216A2056
:10527000FFF756FB00218020FFF752FB0021812021
:10528000FFF74EFB00218220FFF74AFB002183201D
:10529000FFF746FB00218420FFF742FB0021852019
:1052A000FFF73EFB10219020FFF73AFB00219220F0
:1052B000FFF736FB03219320FFF732FB4FF4887191
:1052C0009520FFF72DFB00219720FFF729FB0021F8
:1052D0009820FFF725FB41F218010320FFF720FB80
:1052E000BDE8104040F273110720FFF719BB010918
:1052F00001EB810100F00F0000EB4100C0B27047EC
:105300000022014602E00A39C9B2521C0A29FAD227
:10531000100741EA106070472DE9F041044600682B
:105320000025C168490619D4C16841F08001C160F7
:10533000FDF754FE06464FF47A78032708E000BFD5
:10534000FDF74CFE801B404502D9032584F82570EB
:105350002068C068400601D4032DF1D12846BDE87D
:10536000F08170B5044600680025C16821F0800115
:10537000C160206881694FF00306890607D4204682
:10538000FEF710FD98B184F8256003250FE08169D0
:1053900021F0200181612046FEF704FD10B184F860
:1053A000256003252068816941F02001816128463C
:1053B00070BD00B585B014216846FBF737F80420AE
:1053C0000090002001900120029069464FF090402B
:1053D000FDF7D6FC05B000BD00B585B014216846C8
:1053E000FBF724F804200090112001900020029087
:1053F0000120039069464FF09040FDF7C1FC05B0D5
:1054000000BD704710B500F005F8BDE81040FDF78D
:10541000EBBD000002484168491C4160FDF7E4BD56
:105420003801002000B593B038216846FAF7FEFF36
:1054300014210EA8FAF7FAFF0020FDF767FE0A20F4
:1054400000904FF48070039040200490012005905C
:1054500002200421CDE908015521CDE90A10079069
:105460000C900D906846FEF71FF908B172B6FEE782
:105470000F200E9003200F9000201090119012909A
:1054800004210EA8FDF7ECFF002801D072B6FEE75C
:1054900013B000BD0248016841F47001016070471B
:1054A00088ED00E0704700002DE9F0430268264BCC
:1054B000264D274E274C4FF08049984207D048454B
:1054C00005D0A84203D0B04201D0A04203D122F0BF
:1054D00070074A683A43204FDFF880C0DFF88080C9
:1054E00098420DD048450BD0A84209D0B04207D011
:1054F000A04205D0B84203D0604501D0404503D159
:1055000022F44075CA682A434D6922F080022A437A
:1055100002608A68C2620A688262984207D0A0422A
:1055200005D0B84203D0604501D0404501D109699A
:105530000163012141610169C90703D0016921F0BB
:1055400001010161BDE8F083002C0140000400402E
:105550000008004000340140004001400044014088
:105560000048014010B501F01F030121046A994071
:105570008C430462016A9A401143016210BD10B568
:10558000846A0121626A824205D12177C069F8B933
:1055900084F83E101CE0A26A824206D102222277E1
:1055A000C069A8B984F83F1012E0E26A824206D1CD
:1055B00004222277C06958B984F8401008E0226BB1
:1055C000824205D108222277C06908B984F84110C7
:1055D0002046FEF7F5FD0020207710BD10B5846A47
:1055E000616A814201D101200DE0A16A814201D1AD
:1055F000022008E0E16A814201D1042003E0216B2E
:10560000814201D1082020772046FEF7DAFD0020F4
:10561000207710BD10B5846A0121626A824203D1ED
:10562000217784F83E1019E0A26A824204D1022058
:10563000207784F83F1011E0E26A824204D104200E
:10564000207784F8401009E0226B824204D10820C0
:10565000207784F8411001E084F83D102046FEF7E1
:105660006DFC0020207710BD2DE9F043056A026A29
:1056700022F001020262436882691C4C25F0020597
:1056800022400C6822F0030214438A68194E2A4310
:10569000174D194FDFF864C0DFF86490A84207D0B7
:1056A000B04205D0B84203D0604501D0484506D18C
:1056B00022F00808CA6842EA080222F00402A8425E
:1056C00007D0B04205D0B84203D0604501D048456C
:1056D00005D14D6923F440731D438B692B4343600F
:1056E0008461496841630262BDE8F0838FFFFEFF79
:1056F000002C0140003401400040014000440140C2
:1057000000480140F0B5056A026A22F01002026208
:1057100042688369194C1B4E23400C6823F4407384
:1057200043EA042425F020038D6843EA0513144D51
:10573000A84201D0B04206D1CF6823F0800343EAEB
:10574000071323F04003A8420AD0B04208D00E4D00
:10575000A84205D00D4DA84202D00D4DA84207D158
:105760004D6922F4406242EA85028D6942EA85026F
:1057700042608461496881630362F0BDFF8FFFFE70
:10578000002C014000340140004001400044014031
:1057900000480140F0B5056A026A22F48072026294
:1057A0004368C269194C1B4E22400C6822F0030268
:1057B000144325F400728D6842EA0522144DA84274
:1057C00001D0B04206D1CF6822F4006242EA07223B
:1057D00022F48062A8420AD0B04208D00E4DA842FE
:1057E00005D00E4DA84202D00D4DA84207D14D69FB
:1057F00023F4405343EA05138D6943EA05134360DC
:10580000C4614968C1630262F0BD00008FFFFEFF02
:10581000002C0140003401400040014000440140A0
:1058200000480140F0B5056A026A22F48052026223
:105830004268C369194C1B4E23400C6823F4407323
:1058400043EA042425F400538D6843EA0533144DDC
:10585000A84201D0B04206D1CF6823F4004343EA06
:10586000073323F48043A8420AD0B04208D00E4D3B
:10587000A84205D00D4DA84202D00D4DA84207D137
:105880004D6922F4404242EA85128D6942EA85124E
:105890004260C461496801640362F0BDFF8FFFFE8E
:1058A000002C014000340140004001400044014010
:1058B0000048014030B5056A026A22F48032026273
:1058C0004268036D114C23400C681C4325F40033DF
:1058D0000D8943EA05430E4DA8420BD00D4DA84259
:1058E00008D00D4DA84205D00C4DA84202D00C4D59
:1058F000A84204D14D6922F4803242EA0522426076
:10590000046549688164036230BD00008FFFFEFFBB
:10591000002C01400034014000400140004401409F
:105920000048014030B5046A026A22F48012026223
:105930004268036D114D24F400142B400D6843EAB6
:1059400005230D8944EA05540D4DA8420BD00D4D99
:10595000A84208D00C4DA84205D00C4DA84202D058
:105960000B4DA84204D14D6922F4802242EA8522DF
:10597000426003654968C164046230BDFF8FFFFE69
:10598000002C01400034014000400140004401402F
:1059900000480140FEE7002211461046AFF30080A8
:1059A000F0B515460E46074600242B4632463946CA
:1059B000204600F02DF8641CA4B2042CF5D3F0BDF1
:1059C00010B500F081F8602108460023094A28310B
:1059D00004E000BF22F81030401C80B28842F9D3A6
:1059E000FFF7D9FF044901200870BDE8104000F01E
:1059F00079B80000B80500204E0100200348007867
:105A000008B1002070470120704700004E010020BF
:105A1000F0B5042833D200EB4000C500184800243C
:105A200002FA04F6360601D5772600E03B262F1948
:105A3000641CE4B220F81760082CF1D35FF0000278
:105A400001FA02F4240601D5772400E03B24AE18C5
:105A500000EB4606521CD2B23482082AF0D3002151
:105A600003FA01F2120601D5772200E03B226C18FE
:105A700000EB4404491CC9B222840829F0D3F0BDCC
:105A8000B805002070B50D4C002020700C210C488A
:105A9000FEF714FD0A48006B90F825100125022935
:105AA00001D180F825508823064A0C210448FEF7CE
:105AB00007FC002800D1257070BD00004E010020B9
:105AC00068030020B805002010B50C210348FEF73C
:105AD000F5FC03490120087010BD00006803002098
